:100000000C942A000C9447000C9447000C94470071
:100010000C9447000C9447000C9447000C94470044
:100020000C9447000C9447000C948F020C944700EA
:100030000C9447000C9447000C9447000C94470024
:100040000C9424010C9447000C9447000C94470036
:100050000C94470011241FBECFE5D8E0DEBFCDBF12
:1000600011E0A0E6B0E0E2E9F6E102C005900D92F1
:10007000AA3BB107D9F711E0AAEBB1E001C01D928C
:10008000A93CB107E1F70E9449000C94470B0C947E
:1000900000008F929F92AF92BF92CF92DF92EF9229
:1000A000FF920F931F93CF93DF931092BE01109294
:1000B000BF011092BD010E940F010E9465020E94C3
:1000C000870284E890E09093C6018093C5018FEF8A
:1000D00087BB789410E000E0FF2420E6822E20E029
:1000E000922EEE24EA9490EAA92E9FE0B92E83E79F
:1000F000C82E80E0D82EC0E9D1E08091BE018823CF
:10010000B9F01092BE01FF2049F081E06FE00E943B
:10011000650181E00E94D201FF240AC081E06FE006
:100120000E94650180E290E00E94C308FF24F394DE
:100130008091BF01882309F453C01092BF0180E071
:1001400060E00E9465016091BD0170E0882777FD45
:100150008095982F0E94D00520E030E040EA50E4DE
:100160000E94A60420E030E040E85BE30E94A60481
:1001700020E030E048EC52E40E94A6040E94D00245
:10018000162F00D000D000D0EDB7FEB73196ADB736
:10019000BEB712969C928E9211976283138204834B
:1001A00015820E94AE08EDB7FEB736960FB6F894EA
:1001B000FEBF0FBEEDBF80E064E00E94650183E0FA
:1001C0000E94D20180E06EE00E94650183E00E94FF
:1001D000D20181E06EE00E94650182E00E94D201BE
:1001E000011708F08ACFE8BAC5010197F1F718BAEC
:1001F0000E94870100D0ADB7BEB71296DC92CE92B6
:1002000011970E94AE0880E197E20F900F90FE01D7
:100210003197F1F70197D9F7012F0C5F6ECF80E688
:1002200087B98FED86B98FEF87BB089585B190E0D0
:10023000089584B190E0089587B9089586B9089526
:10024000369A3699FECF08951F920F920FB60F92ED
:1002500011248F9381E08093BF0185B18093BD010C
:100260008091BD018B3218F08FEF88BB01C018BAA6
:100270008F910F900FBE0F901F9018955D9BFECF32
:10028000EAE6F8E13197F1F78CB90895FC014AE606
:1002900058E107C05D9BFECFCA010197F1F72CB969
:1002A000319620812223B1F75D9BFECF8AE698E14B
:1002B0000197F1F78DE08CB95D9BFECF8AE698E15E
:1002C0000197F1F78AE08CB90895982F823048F4AD
:1002D000603138F4605884E1989FC0011124680FA0
:1002E00001C060E85D9BFECF8AE698E10197F1F7D7
:1002F0006CB908955D9BFECF2AE638E1C9010197EC
:10030000F1F78CE08CB9C9010197F1F708950E94CB
:100310007A0108955D9BFECF8AE698E10197F1F797
:1003200088E08CB90895803311F422E101C021E105
:100330005D9BFECF8AE698E10197F1F72CB908950D
:10034000813321F40E94930126E104C080E30E94DE
:10035000930125E15D9BFECF8AE698E10197F1F7D5
:100360002CB908955D9BFECFEAE6F8E13197F1F7ED
:1003700089508CB920E030E04AE658E1FB01E20FF9
:10038000F31FE0815D9BFECFCA010197F1F7ECB945
:100390002F5F3F4F2830310589F784E294EF0197B2
:1003A000F1F70895893040F45D9BFECFEAE6F8E16D
:1003B0003197F1F781508CB90895DF93CF93CDB782
:1003C000DEB728970FB6F894DEBF0FBECDBFDE01B3
:1003D0001196EAEAF0E088E001900D928150E1F791
:1003E00081E0BE016F5F7F4F0E94B20128960FB679
:1003F000F894DEBF0FBECDBFCF91DF910895DF939C
:10040000CF93CDB7DEB728970FB6F894DEBF0FBEF7
:10041000CDBFDE011196E2EAF0E088E001900D9296
:100420008150E1F782E0BE016F5F7F4F0E94B20111
:1004300028960FB6F894DEBF0FBECDBFCF91DF91E7
:100440000895DF93CF93CDB7DEB728970FB6F89412
:10045000DEBF0FBECDBFDE011196EAE9F0E088E015
:1004600001900D928150E1F783E0BE016F5F7F4FF5
:100470000E94B20128960FB6F894DEBF0FBECDBF22
:10048000CF91DF910895DF93CF93CDB7DEB7289753
:100490000FB6F894DEBF0FBECDBFDE011196E2E9C4
:1004A000F0E088E001900D928150E1F784E0BE0118
:1004B0006F5F7F4F0E94B20128960FB6F894DEBF9F
:1004C0000FBECDBFCF91DF91089510BC87E689B9EB
:1004D00088E08AB95D9BFECF8AE698E10197F1F743
:1004E00086E18CB95D9BFECF8AE698E10197F1F732
:1004F00081E18CB982E19AE70197F1F70E94FF014F
:100500000E9421020E94DD010E944302089585E0BD
:1005100083BF12BE8FEF8CBF82E089BF08951F9208
:100520000F920FB60F9211248F938091BA018F30E2
:1005300019F581E08093BE01369A3699FECF10926C
:10054000BA018091BC01803149F48091BB018F5F79
:100550008093BB0181E08093C00105C01092BB0174
:100560008F5F8093BC018091BB01883051F4109261
:10057000C0011092BC0105C08091BA018F5F8093C9
:10058000BA018F910F900FBE0F901F9018958BB7E7
:10059000806C8BBF85B78A6085BF11BA12BA089587
:1005A000EF92FF920F931F937B018C0120E030E0CC
:1005B00040E05FE40E94A00588238CF0C801B701E9
:1005C00020E030E040E05FE40E9448040E942E06F4
:1005D0009B01AC01205030404040504806C0C8014B
:1005E000B7010E942E069B01AC01B901CA011F91FF
:1005F0000F91FF90EF900895A0E0B0E0E2E0F3E00B
:100600000C947708DC012B01FA019C91923008F4DC
:1006100039C1EB018881823008F433C1943069F428
:10062000843009F02FC111969C91119789819817F8
:1006300009F428C1A2EBB0E025C1843009F421C13E
:100640008230A9F4923009F01DC19A01AD0188E011
:10065000EA010990AE01E90109929E018150C1F7BA
:10066000E201898111969C918923818308C192308E
:1006700009F407C112962D903C901397EB018A81E3
:100680009B811496AD90BD90CD90DC901797EC8037
:10069000FD800E811F819101281B390BB90137FFA5
:1006A00004C066277727621B730B603271050CF05C
:1006B00061C0121613066CF537014801062E04C0FE
:1006C00096948794779467940A94D2F721E030E067
:1006D00040E050E004C0220F331F441F551F6A95AD
:1006E000D2F721503040404050402E213F2140233E
:1006F0005123211531054105510521F021E030E05C
:1007000040E050E079018A01E628F72808291929F4
:100710003CC0232BD1F1260E371E35014601062E93
:1007200004C096948794779467940A94D2F721E052
:1007300030E040E050E004C0220F331F441F551F3B
:100740006A95D2F721503040404050402A213B2149
:100750004C215D21211531054105510521F021E094
:1007600030E040E050E059016A01A628B728C828C7
:10077000D9280BC0821593052CF01C01AA24BB2498
:10078000650103C0EE24FF24870111969C91D201DC
:1007900011968C91981709F445C0992339F0A80156
:1007A00097012A193B094C095D0906C0A60195016C
:1007B0002E193F09400B510B57FD08C0118233829F
:1007C000228224833583468357831DC081E0818341
:1007D0003382228288279927DC01821B930BA40B8A
:1007E000B50B84839583A683B7830DC0220F331F77
:1007F000441F551F24833583468357838281938109
:100800000197938382832481358146815781DA0160
:10081000C9010197A109B1098F5F9F4FAF4FBF4336
:1008200028F30BC0918333822282EA0CFB1C0C1D3F
:100830001D1DE482F5820683178383E08083248173
:1008400035814681578157FF1AC0C901AA2797FDF4
:10085000A095BA2F81709070A070B0705695479592
:1008600037952795822B932BA42BB52B84839583C7
:10087000A683B78382819381019693838283DF016C
:1008800001C0D201CD01CDB7DEB7E2E10C949308EF
:10089000A0E2B0E0EEE4F4E00C94830869837A838C
:1008A0008B839C832D833E834F835887E9E0EE2E14
:1008B000F12CEC0EFD1ECE010196B7010E94A60799
:1008C0008E010F5E1F4FCE010596B8010E94A6074C
:1008D0008A8991E089278A8BC701B801AE01475EFA
:1008E0005F4F0E94FC020E94D106A096E6E00C94A5
:1008F0009F08A0E2B0E0EFE7F4E00C94830869837E
:100900007A838B839C832D833E834F835887F9E0C2
:10091000EF2EF12CEC0EFD1ECE010196B7010E94C8
:10092000A6078E010F5E1F4FCE010596B8010E94EB
:10093000A607C701B801AE01475E5F4F0E94FC02E7
:100940000E94D106A096E6E00C949F08A0E2B0E0D9
:10095000ECEAF4E00C94770869837A838B839C83B8
:100960002D833E834F835887CE010196BE01675F7A
:100970007F4F0E94A607CE010596BE016F5E7F4F96
:100980000E94A6079985923088F089898230C8F044
:10099000943019F4823051F404C0843029F4923038
:1009A00081F482EB90E0C6C0923049F420E09A8551
:1009B0008A89981321E02A87CE010996BBC082302C
:1009C00049F420E09A858A89981321E02A8BCE0188
:1009D0004196B0C02D843E844F8458886D887E88AF
:1009E0008F88988CEE24FF248701AA24BB246501FC
:1009F00040E050E060E070E0E0E0F0E0C1018170D4
:100A00009070892BE9F0E60CF71C081D191D9A015E
:100A1000AB012A0D3B1D4C1D5D1D80E090E0A0E068
:100A2000B0E0E614F7040805190520F481E090E031
:100A3000A0E0B0E0BA01A901480F591F6A1F7B1F4F
:100A4000AA0CBB1CCC1CDD1C97FE08C081E090E00A
:100A5000A0E0B0E0A82AB92ACA2ADB2A3196E032FF
:100A6000F10549F0660C771C881C991C5694479434
:100A700037942794C3CFFA85EA892B893C898B85E3
:100A80009C85280F391F2E5F3F4F17C0CA01817008
:100A90009070892B61F016950795F794E79480E0A4
:100AA00090E0A0E0B0E8E82AF92A0A2B1B2B769503
:100AB0006795579547952F5F3F4F77FDE7CF0CC060
:100AC000440F551F661F771F17FD4160EE0CFF1C7A
:100AD000001F111F21503040403090E0590790E036
:100AE000690790E4790760F32B8F3C8FDB01CA0123
:100AF0008F779070A070B07080349105A105B1051A
:100B000061F447FD0AC0E114F1040105110529F063
:100B1000405C5F4F6F4F7F4F40781A8EFE1711F089
:100B200081E08A8F4D8F5E8F6F8F78A383E0898FEE
:100B3000CE0149960E94D106A096E2E10C9493085A
:100B4000A8E1B0E0E6EAF5E00C94830869837A83D3
:100B50008B839C832D833E834F83588789E0E82EC7
:100B6000F12CEC0EFD1ECE010196B7010E94A607E6
:100B70008E010F5E1F4FCE010596B8010E94A60799
:100B80008985823040F08989823028F0C701B80118
:100B90000E941E0801C08FEF6896E6E00C949F0843
:100BA000A8E0B0E0E6EDF5E00C9480089B01AC0114
:100BB00083E08983DA01C9018827B7FD83959927E6
:100BC000AA27BB27B82E211531054105510519F477
:100BD00082E089833AC08823A9F0203080E038077A
:100BE00080E0480780E8580729F460E070E080E082
:100BF0009FEC30C0EE24FF248701E21AF30A040BB5
:100C0000150B02C079018A018EE1C82ED12CDC823D
:100C1000CB82ED82FE820F831887C801B7010E9444
:100C2000820601971816190684F4082E04C0EE0CEB
:100C3000FF1C001F111F0A94D2F7ED82FE820F8362
:100C40001887C81AD90ADC82CB82BA82CE010196F3
:100C50000E94D1062896E9E00C949C08ACE0B0E034
:100C6000E4E3F6E00C94870869837A838B839C83A2
:100C7000CE010196BE016B5F7F4F0E94A6078D815A
:100C8000823061F1823050F1843021F48E818823EA
:100C900051F12EC02F81388537FD20C06E812F3154
:100CA00031051CF06623F9F023C08EE190E0821B31
:100CB000930B29853A854B855C8504C056954795ED
:100CC000379527958A95D2F76623B1F050954095D0
:100CD000309521953F4F4F4F5F4F0EC020E030E0E1
:100CE00040E050E009C02FEF3FEF4FEF5FE704C057
:100CF00020E030E040E050E8B901CA012C96E2E083
:100D00000C94A308EF92FF920F931F937B018C0129
:100D100080E0E81680E0F80681E0080780E0180728
:100D200088F48FEFE816F1040105110531F028F081
:100D300088E090E0A0E0B0E017C080E090E0A0E0A4
:100D4000B0E012C080E0E81680E0F80680E0080716
:100D500081E0180728F088E190E0A0E0B0E004C04E
:100D600080E190E0A0E0B0E020E230E040E050E040
:100D7000281B390B4A0B5B0B04C016950795F7949B
:100D8000E7948A95D2F7F701E654FF4F8081281B3C
:100D9000310941095109C9011F910F91FF90EF904D
:100DA0000895DF92EF92FF920F931F93FC01E4806E
:100DB000F58006811781D1808081823048F480E0FF
:100DC00090E0A0E1B0E0E82AF92A0A2B1B2BA5C08D
:100DD000843009F49FC0823021F4EE24FF2487017F
:100DE00005C0E114F1040105110519F4E0E0F0E09B
:100DF00096C0628173819FEF623879070CF05BC007
:100E000022E83FEF261B370B2A3131052CF020E07A
:100E100030E040E050E02AC0B801A701022E04C033
:100E200076956795579547950A94D2F781E090E0BB
:100E3000A0E0B0E004C0880F991FAA1FBB1F2A952D
:100E4000D2F70197A109B1098E219F21A023B123D7
:100E50000097A105B10521F081E090E0A0E0B0E0AD
:100E60009A01AB01282B392B4A2B5B2BDA01C901E4
:100E70008F779070A070B07080349105A105B10596
:100E800039F427FF09C0205C3F4F4F4F5F4F04C02C
:100E9000215C3F4F4F4F5F4FE0E0F0E02030A0E09B
:100EA0003A07A0E04A07A0E45A0710F0E1E0F0E0BA
:100EB00079018A0127C06038710564F5FB01E158AA
:100EC000FF4FD801C7018F779070A070B070803449
:100ED0009105A105B10539F4E7FE0DC080E490E06D
:100EE000A0E0B0E004C08FE390E0A0E0B0E0E80E46
:100EF000F91E0A1F1B1F17FF05C016950795F794CB
:100F0000E794319687E016950795F794E7948A95CC
:100F1000D1F705C0EE24FF248701EFEFF0E06E2F3C
:100F2000679566276795902F9F77D794DD24D79490
:100F30008E2F8695492F462B582F5D29B701CA0160
:100F40001F910F91FF90EF90DF900895FC01DB015E
:100F5000408151812281622F6F7770E0221F22270A
:100F6000221F9381892F880F822B282F30E0991F11
:100F70009927991F11969C93119721153105A9F571
:100F8000411551056105710511F482E037C082E811
:100F90009FEF13969C938E9312979A01AB0167E093
:100FA000220F331F441F551F6A95D1F783E08C939E
:100FB0000DC0220F331F441F551F12968D919C9117
:100FC0001397019713969C938E931297203080E08D
:100FD000380780E0480780E4580758F314962D93AB
:100FE0003D934D935C93179708952F3F310579F406
:100FF000411551056105710519F484E08C9308953C
:1010000064FF03C081E08C9312C01C9210C02F5764
:10101000304013963C932E93129783E08C9387E095
:10102000440F551F661F771F8A95D1F77064149679
:101030004D935D936D937C93179708951F93DC01F7
:10104000FB019C91923008F447C08081823008F403
:1010500043C0943051F411961C91843099F58181EC
:10106000682F70E0611B71093FC0843021F092301D
:1010700031F48230B9F18181882389F12DC0119634
:101080001C9111978230F1F081811817D9F41296D2
:101090002D913C911397828193818217930794F04D
:1010A00028173907BCF014968D919D910D90BC9135
:1010B000A02D2481358146815781281739074A0799
:1010C0005B0718F4112341F00AC082179307A407A5
:1010D000B50740F4112319F061E070E005C06FEF2F
:1010E0007FEF02C060E070E0CB011F9108952F9266
:1010F0003F924F925F926F927F928F929F92AF92A8
:10110000BF92CF92DF92EF92FF920F931F93CF93F4
:10111000DF93CDB7DEB7CA1BDB0B0FB6F894DEBF8B
:101120000FBECDBF09942A88398848885F846E84B1
:101130007D848C849B84AA84B984C884DF80EE80FB
:10114000FD800C811B81AA81B981CE0FD11D0FB604
:10115000F894DEBF0FBECDBFED010895A0E0B0E072
:10116000E4EBF8E00C948708FE01359661917191EB
:101170008091C5019091C601AF010E94CA082096D6
:10118000E2E00C94A3086091C5017091C6010E9431
:10119000BD0A0895ABE0B0E0E0EDF8E00C9477080C
:1011A0003C012B015A01FC0117821682838181FDCB
:1011B00003C06FEF7FEFC6C19AE0892E1E0108942D
:1011C000211C311CF3012381F20123FD859123FFB2
:1011D00081912F01882309F4B2C1853239F423FDAE
:1011E000859123FF81912F01853229F490E0B3018D
:1011F0000E94BD0AE7CF982FFF24EE249924FFE137
:10120000FF15D0F09B3269F09C3228F4903259F0EF
:10121000933291F40EC09D3249F0903369F441E06D
:1012200024C052E0F52A84E0F82A28C098E0F92A80
:1012300025C0E0E1FE2A22C0F7FC29C0892F805397
:101240008A3070F4F6FE05C0989C902C1124980EFC
:1012500015C0E89CE02C1124E80EF0E2FF2A0EC035
:101260009E3229F4F6FC6BC140E4F42A07C09C3698
:1012700019F450E8F52A02C0983649F4F20123FD2A
:10128000959123FF91912F01992309F0B8CF892FD0
:101290008554833018F08052833038F444E050E0B5
:1012A000A40EB51E5FE359830FC0933631F0933718
:1012B00079F0933509F056C020C0F501808189830B
:1012C00042E050E0A40EB51E610101E010E012C042
:1012D000F501C080D180F6FC03C06FEF7FEF02C044
:1012E000692D70E042E050E0A40EB51EC6010E94D8
:1012F000B20A8C015FE7F52214C0F501C080D180ED
:10130000F6FC03C06FEF7FEF02C0692D70E042E092
:1013100050E0A40EB51EC6010E94A70A8C0150E839
:10132000F52AF3FE07C01AC080E290E0B3010E94E4
:10133000BD0AEA948E2D90E008171907A8F30EC095
:10134000F601F7FC8591F7FE81916F0190E0B30102
:101350000E94BD0AE110EA940150104001151105E8
:1013600079F7EAC0943611F0993669F5F7FE08C0AE
:10137000F501208131814281538184E090E00AC0EF
:10138000F501808191819C01442737FD4095542FC0
:1013900082E090E0A80EB91E9FE6F92257FF09C02F
:1013A00050954095309521953F4F4F4F5F4FE0E866
:1013B000FE2ACA01B901A1012AE030E00E94E90A2F
:1013C000D82ED21840C0953729F41F2D1F7E2AE051
:1013D00030E01DC01F2D197F9F3661F0903720F43B
:1013E000983509F0ACC00FC0903739F0983709F044
:1013F000A6C004C028E030E00AC0106114FD1460EB
:1014000020E130E004C014FD166020E132E017FF57
:1014100008C0F501608171818281938144E050E0D0
:1014200008C0F50180819181BC0180E090E042E03C
:1014300050E0A40EB51EA1010E94E90AD82ED218D0
:101440008FE7F82EF122F6FE0BC05EEFF522D914DD
:1014500038F4F4FE07C0F2FC05C08FEEF82202C09B
:101460001D2D01C0192DF4FE0DC0FE01ED0DF11D65
:101470008081803319F499EEF92208C01F5FF2FED3
:1014800005C003C08F2D867809F01F5F0F2DF3FC78
:1014900014C0F0FE0FC01E1510F09D2C0BC09D2C2B
:1014A0009E0C911A1E2D06C080E290E0B3010E94AE
:1014B000BD0A1F5F1E15C0F304C01E1510F4E11A0B
:1014C00001C0EE2404FF0FC080E390E0B3010E944E
:1014D000BD0A02FF1DC001FD03C088E790E00EC0F9
:1014E00088E590E00BC0802F867891F001FF02C064
:1014F0008BE201C080E2F7FC8DE290E0B3010E9434
:10150000BD0A06C080E390E0B3010E94BD0A9A9430
:10151000D914C0F3DA94F101ED0DF11D808190E052
:10152000B3010E94BD0ADD20A9F706C080E290E069
:10153000B3010E94BD0AEA94EE20C1F743CEF30145
:1015400066817781CB012B96E2E10C949308FC0134
:101550000590615070400110D8F7809590958E0FDE
:101560009F1F0895FC016150704001900110D8F751
:10157000809590958E0F9F1F08950F931F93CF9383
:10158000DF938C01EB018B8181FF1BC082FF0DC0BB
:101590002E813F818C819D812817390764F4E88171
:1015A000F9810193F983E88306C0E885F985802FE6
:1015B0000995892B31F48E819F8101969F838E83BB
:1015C00002C00FEF1FEFC801DF91CF911F910F9164
:1015D0000895FA01AA27283051F1203181F1E894C9
:1015E0006F936E7F6E5F7F4F8F4F9F4FAF4FB1E016
:1015F0003ED0B4E03CD0670F781F891F9A1FA11D11
:10160000680F791F8A1F911DA11D6A0F711D811D11
:10161000911DA11D20D009F468943F912AE0269FD6
:1016200011243019305D3193DEF6CF010895462F35
:101630004770405D4193B3E00FD0C9F7F6CF462F16
:101640004F70405D4A3318F0495D31FD405241937F
:1016500002D0A9F7EACFB4E0A6959795879577953C
:101660006795BA95C9F700976105710508959B01C3
:10167000AC010A2E06945795479537952795BA954C
:10168000C9F7620F731F841F951FA01D0895F8945A
:02169000FFCF8A
:10169200543D253264204620204D41583D25326478
:1016A2002046004E6577204D61782054656D70218B
:1016B2002121210000000002000000003E01000084
:1016C20000001F1F1F1F1F1F1F1F00060909060002
:1016D20000000305091110101000000A1F1F0E0E52
:1016E20004000000000000000000000102020303E9
:1016F20003030404040404040404050505050505A4
:101702000505050505050505050506060606060681
:101712000606060606060606060606060606060667
:101722000606060606060606060607070707070751
:101732000707070707070707070707070707070737
:101742000707070707070707070707070707070727
:101752000707070707070707070707070707070717
:101762000707070707070707070708080808080801
:1017720008080808080808080808080808080808E7
:1017820008080808080808080808080808080808D7
:1017920008080808080808080808080808080808C7
:1017A20008080808080808080808080808080808B7
:1017B20008080808080808080808080808080808A7
:1017C2000808080808080808080808080808080897
:1017D2000808080808080808080808080808080887
:0A17E20008080808080808080808AD
:00000001FF
